{
  "_format": "hh-sol-artifact-1",
  "contractName": "EpicNFT",
  "sourceName": "contracts/EpicNFT.sol",
  "abi": [
    {
      "inputs": [],
      "stateMutability": "nonpayable",
      "type": "constructor"
    },
    {
      "anonymous": false,
      "inputs": [
        {
          "indexed": true,
          "internalType": "address",
          "name": "owner",
          "type": "address"
        },
        {
          "indexed": true,
          "internalType": "address",
          "name": "approved",
          "type": "address"
        },
        {
          "indexed": true,
          "internalType": "uint256",
          "name": "tokenId",
          "type": "uint256"
        }
      ],
      "name": "Approval",
      "type": "event"
    },
    {
      "anonymous": false,
      "inputs": [
        {
          "indexed": true,
          "internalType": "address",
          "name": "owner",
          "type": "address"
        },
        {
          "indexed": true,
          "internalType": "address",
          "name": "operator",
          "type": "address"
        },
        {
          "indexed": false,
          "internalType": "bool",
          "name": "approved",
          "type": "bool"
        }
      ],
      "name": "ApprovalForAll",
      "type": "event"
    },
    {
      "anonymous": false,
      "inputs": [
        {
          "indexed": false,
          "internalType": "address",
          "name": "sender",
          "type": "address"
        },
        {
          "indexed": false,
          "internalType": "uint256",
          "name": "tokenId",
          "type": "uint256"
        }
      ],
      "name": "NewEpicNFTMinted",
      "type": "event"
    },
    {
      "anonymous": false,
      "inputs": [
        {
          "indexed": true,
          "internalType": "address",
          "name": "from",
          "type": "address"
        },
        {
          "indexed": true,
          "internalType": "address",
          "name": "to",
          "type": "address"
        },
        {
          "indexed": true,
          "internalType": "uint256",
          "name": "tokenId",
          "type": "uint256"
        }
      ],
      "name": "Transfer",
      "type": "event"
    },
    {
      "inputs": [
        {
          "internalType": "address",
          "name": "to",
          "type": "address"
        },
        {
          "internalType": "uint256",
          "name": "tokenId",
          "type": "uint256"
        }
      ],
      "name": "approve",
      "outputs": [],
      "stateMutability": "nonpayable",
      "type": "function"
    },
    {
      "inputs": [
        {
          "internalType": "address",
          "name": "owner",
          "type": "address"
        }
      ],
      "name": "balanceOf",
      "outputs": [
        {
          "internalType": "uint256",
          "name": "",
          "type": "uint256"
        }
      ],
      "stateMutability": "view",
      "type": "function"
    },
    {
      "inputs": [
        {
          "internalType": "uint256",
          "name": "tokenId",
          "type": "uint256"
        }
      ],
      "name": "getApproved",
      "outputs": [
        {
          "internalType": "address",
          "name": "",
          "type": "address"
        }
      ],
      "stateMutability": "view",
      "type": "function"
    },
    {
      "inputs": [
        {
          "internalType": "address",
          "name": "owner",
          "type": "address"
        },
        {
          "internalType": "address",
          "name": "operator",
          "type": "address"
        }
      ],
      "name": "isApprovedForAll",
      "outputs": [
        {
          "internalType": "bool",
          "name": "",
          "type": "bool"
        }
      ],
      "stateMutability": "view",
      "type": "function"
    },
    {
      "inputs": [],
      "name": "makeAnEpicNFT",
      "outputs": [],
      "stateMutability": "nonpayable",
      "type": "function"
    },
    {
      "inputs": [],
      "name": "name",
      "outputs": [
        {
          "internalType": "string",
          "name": "",
          "type": "string"
        }
      ],
      "stateMutability": "view",
      "type": "function"
    },
    {
      "inputs": [
        {
          "internalType": "uint256",
          "name": "tokenId",
          "type": "uint256"
        }
      ],
      "name": "ownerOf",
      "outputs": [
        {
          "internalType": "address",
          "name": "",
          "type": "address"
        }
      ],
      "stateMutability": "view",
      "type": "function"
    },
    {
      "inputs": [
        {
          "internalType": "uint256",
          "name": "tokenId",
          "type": "uint256"
        }
      ],
      "name": "pickRandomFirstWord",
      "outputs": [
        {
          "internalType": "string",
          "name": "",
          "type": "string"
        }
      ],
      "stateMutability": "view",
      "type": "function"
    },
    {
      "inputs": [
        {
          "internalType": "uint256",
          "name": "tokenId",
          "type": "uint256"
        }
      ],
      "name": "pickRandomSecondWord",
      "outputs": [
        {
          "internalType": "string",
          "name": "",
          "type": "string"
        }
      ],
      "stateMutability": "view",
      "type": "function"
    },
    {
      "inputs": [
        {
          "internalType": "address",
          "name": "from",
          "type": "address"
        },
        {
          "internalType": "address",
          "name": "to",
          "type": "address"
        },
        {
          "internalType": "uint256",
          "name": "tokenId",
          "type": "uint256"
        }
      ],
      "name": "safeTransferFrom",
      "outputs": [],
      "stateMutability": "nonpayable",
      "type": "function"
    },
    {
      "inputs": [
        {
          "internalType": "address",
          "name": "from",
          "type": "address"
        },
        {
          "internalType": "address",
          "name": "to",
          "type": "address"
        },
        {
          "internalType": "uint256",
          "name": "tokenId",
          "type": "uint256"
        },
        {
          "internalType": "bytes",
          "name": "data",
          "type": "bytes"
        }
      ],
      "name": "safeTransferFrom",
      "outputs": [],
      "stateMutability": "nonpayable",
      "type": "function"
    },
    {
      "inputs": [
        {
          "internalType": "address",
          "name": "operator",
          "type": "address"
        },
        {
          "internalType": "bool",
          "name": "approved",
          "type": "bool"
        }
      ],
      "name": "setApprovalForAll",
      "outputs": [],
      "stateMutability": "nonpayable",
      "type": "function"
    },
    {
      "inputs": [
        {
          "internalType": "bytes4",
          "name": "interfaceId",
          "type": "bytes4"
        }
      ],
      "name": "supportsInterface",
      "outputs": [
        {
          "internalType": "bool",
          "name": "",
          "type": "bool"
        }
      ],
      "stateMutability": "view",
      "type": "function"
    },
    {
      "inputs": [],
      "name": "symbol",
      "outputs": [
        {
          "internalType": "string",
          "name": "",
          "type": "string"
        }
      ],
      "stateMutability": "view",
      "type": "function"
    },
    {
      "inputs": [
        {
          "internalType": "uint256",
          "name": "tokenId",
          "type": "uint256"
        }
      ],
      "name": "tokenURI",
      "outputs": [
        {
          "internalType": "string",
          "name": "",
          "type": "string"
        }
      ],
      "stateMutability": "view",
      "type": "function"
    },
    {
      "inputs": [
        {
          "internalType": "address",
          "name": "from",
          "type": "address"
        },
        {
          "internalType": "address",
          "name": "to",
          "type": "address"
        },
        {
          "internalType": "uint256",
          "name": "tokenId",
          "type": "uint256"
        }
      ],
      "name": "transferFrom",
      "outputs": [],
      "stateMutability": "nonpayable",
      "type": "function"
    }
  ],
  "bytecode": "0x608060405260405180610160016040528061012f81526020016200409661012f91396008908162000031919062000852565b506040518060c001604052806040518060400160405280600581526020017f536f75746800000000000000000000000000000000000000000000000000000081525081526020016040518060400160405280600381526020017f546865000000000000000000000000000000000000000000000000000000000081525081526020016040518060400160405280600781526020017f5269636b416e640000000000000000000000000000000000000000000000000081525081526020016040518060400160405280600781526020017f4361706974616e0000000000000000000000000000000000000000000000000081525081526020016040518060400160405280600981526020017f4e6570687468616c69000000000000000000000000000000000000000000000081525081526020016040518060400160405280600881526020017f42726f6f6b6c796e0000000000000000000000000000000000000000000000008152508152506009906006620001af929190620004eb565b506040518060c001604052806040518060400160405280600881526020017f53696d70736f6e7300000000000000000000000000000000000000000000000081525081526020016040518060400160405280600781526020017f416d65726963610000000000000000000000000000000000000000000000000081525081526020016040518060400160405280600481526020017f5061726b0000000000000000000000000000000000000000000000000000000081525081526020016040518060400160405280600581526020017f4d6f72747900000000000000000000000000000000000000000000000000000081525081526020016040518060400160405280600281526020017f393900000000000000000000000000000000000000000000000000000000000081525081526020016040518060400160405280600581526020017f53616c616d000000000000000000000000000000000000000000000000000000815250815250600a9060066200032d929190620004eb565b503480156200033b57600080fd5b506040518060400160405280600781526020017f446f6d654e4654000000000000000000000000000000000000000000000000008152506040518060400160405280600481526020017f444f4d45000000000000000000000000000000000000000000000000000000008152508160009081620003b9919062000852565b508060019081620003cb919062000852565b505050620004196040518060400160405280601581526020017f4d79206669727374204e465420636f6e747261637400000000000000000000008152506200041f60201b62000db41760201c565b620009ec565b620004bf81604051602401620004369190620009c8565b6040516020818303038152906040527f41304fac000000000000000000000000000000000000000000000000000000007bffffffffffffffffffffffffffffffffffffffffffffffffffffffff19166020820180517bffffffffffffffffffffffffffffffffffffffffffffffffffffffff8381831617835250505050620004c260201b60201c565b50565b60008151905060006a636f6e736f6c652e6c6f679050602083016000808483855afa5050505050565b82805482825590600052602060002090810192821562000538579160200282015b828111156200053757825182908162000526919062000852565b50916020019190600101906200050c565b5b5090506200054791906200054b565b5090565b5b808211156200056f576000818162000565919062000573565b506001016200054c565b5090565b508054620005819062000641565b6000825580601f10620005955750620005b6565b601f016020900490600052602060002090810190620005b59190620005b9565b5b50565b5b80821115620005d4576000816000905550600101620005ba565b5090565b600081519050919050565b7f4e487b7100000000000000000000000000000000000000000000000000000000600052604160045260246000fd5b7f4e487b7100000000000000000000000000000000000000000000000000000000600052602260045260246000fd5b600060028204905060018216806200065a57607f821691505b60208210810362000670576200066f62000612565b5b50919050565b60008190508160005260206000209050919050565b60006020601f8301049050919050565b600082821b905092915050565b600060088302620006da7fffffffffffffffffffffffffffffffffffffffffffffffffffffffffffffffff826200069b565b620006e686836200069b565b95508019841693508086168417925050509392505050565b6000819050919050565b6000819050919050565b6000620007336200072d6200072784620006fe565b62000708565b620006fe565b9050919050565b6000819050919050565b6200074f8362000712565b620007676200075e826200073a565b848454620006a8565b825550505050565b600090565b6200077e6200076f565b6200078b81848462000744565b505050565b5b81811015620007b357620007a760008262000774565b60018101905062000791565b5050565b601f8211156200080257620007cc8162000676565b620007d7846200068b565b81016020851015620007e7578190505b620007ff620007f6856200068b565b83018262000790565b50505b505050565b600082821c905092915050565b6000620008276000198460080262000807565b1980831691505092915050565b600062000842838362000814565b9150826002028217905092915050565b6200085d82620005d8565b67ffffffffffffffff811115620008795762000878620005e3565b5b62000885825462000641565b62000892828285620007b7565b600060209050601f831160018114620008ca5760008415620008b5578287015190505b620008c1858262000834565b86555062000931565b601f198416620008da8662000676565b60005b828110156200090457848901518255600182019150602085019450602081019050620008dd565b8683101562000924578489015162000920601f89168262000814565b8355505b6001600288020188555050505b505050505050565b600082825260208201905092915050565b60005b838110156200096a5780820151818401526020810190506200094d565b60008484015250505050565b6000601f19601f8301169050919050565b60006200099482620005d8565b620009a0818562000939565b9350620009b28185602086016200094a565b620009bd8162000976565b840191505092915050565b60006020820190508181036000830152620009e4818462000987565b905092915050565b61369a80620009fc6000396000f3fe608060405234801561001057600080fd5b50600436106101005760003560e01c806370a0823111610097578063b88d4fde11610066578063b88d4fde146102d1578063c87b56dd146102ed578063de9d132f1461031d578063e985e9c51461032757610100565b806370a082311461023757806395d89b4114610267578063a22cb46514610285578063b187301f146102a157610100565b806323b872dd116100d357806323b872dd1461019f5780632de38d68146101bb57806342842e0e146101eb5780636352211e1461020757610100565b806301ffc9a71461010557806306fdde0314610135578063081812fc14610153578063095ea7b314610183575b600080fd5b61011f600480360381019061011a9190612093565b610357565b60405161012c91906120db565b60405180910390f35b61013d610439565b60405161014a9190612186565b60405180910390f35b61016d600480360381019061016891906121de565b6104cb565b60405161017a919061224c565b60405180910390f35b61019d60048036038101906101989190612293565b610511565b005b6101b960048036038101906101b491906122d3565b610628565b005b6101d560048036038101906101d091906121de565b610688565b6040516101e29190612186565b60405180910390f35b610205600480360381019061020091906122d3565b610780565b005b610221600480360381019061021c91906121de565b6107a0565b60405161022e919061224c565b60405180910390f35b610251600480360381019061024c9190612326565b610826565b60405161025e9190612362565b60405180910390f35b61026f6108dd565b60405161027c9190612186565b60405180910390f35b61029f600480360381019061029a91906123a9565b61096f565b005b6102bb60048036038101906102b691906121de565b610985565b6040516102c89190612186565b60405180910390f35b6102eb60048036038101906102e6919061251e565b610a7d565b005b610307600480360381019061030291906121de565b610adf565b6040516103149190612186565b60405180910390f35b610325610bf1565b005b610341600480360381019061033c91906125a1565b610d20565b60405161034e91906120db565b60405180910390f35b60007f80ac58cd000000000000000000000000000000000000000000000000000000007bffffffffffffffffffffffffffffffffffffffffffffffffffffffff1916827bffffffffffffffffffffffffffffffffffffffffffffffffffffffff1916148061042257507f5b5e139f000000000000000000000000000000000000000000000000000000007bffffffffffffffffffffffffffffffffffffffffffffffffffffffff1916827bffffffffffffffffffffffffffffffffffffffffffffffffffffffff1916145b80610432575061043182610e4d565b5b9050919050565b60606000805461044890612610565b80601f016020809104026020016040519081016040528092919081815260200182805461047490612610565b80156104c15780601f10610496576101008083540402835291602001916104c1565b820191906000526020600020905b8154815290600101906020018083116104a457829003601f168201915b5050505050905090565b60006104d682610eb7565b6004600083815260200190815260200160002060009054906101000a900473ffffffffffffffffffffffffffffffffffffffff169050919050565b600061051c826107a0565b90508073ffffffffffffffffffffffffffffffffffffffff168373ffffffffffffffffffffffffffffffffffffffff160361058c576040517f08c379a0000000000000000000000000000000000000000000000000000000008152600401610583906126b3565b60405180910390fd5b8073ffffffffffffffffffffffffffffffffffffffff166105ab610f02565b73ffffffffffffffffffffffffffffffffffffffff1614806105da57506105d9816105d4610f02565b610d20565b5b610619576040517f08c379a000000000000000000000000000000000000000000000000000000000815260040161061090612745565b60405180910390fd5b6106238383610f0a565b505050565b610639610633610f02565b82610fc3565b610678576040517f08c379a000000000000000000000000000000000000000000000000000000000815260040161066f906127d7565b60405180910390fd5b610683838383611058565b505050565b606060006106bc61069884611351565b6040516020016106a8919061287f565b60405160208183030381529060405261141f565b9050600980549050816106cf91906128d0565b9050600981815481106106e5576106e4612901565b5b9060005260206000200180546106fa90612610565b80601f016020809104026020016040519081016040528092919081815260200182805461072690612610565b80156107735780601f1061074857610100808354040283529160200191610773565b820191906000526020600020905b81548152906001019060200180831161075657829003601f168201915b5050505050915050919050565b61079b83838360405180602001604052806000815250610a7d565b505050565b6000806107ac83611452565b9050600073ffffffffffffffffffffffffffffffffffffffff168173ffffffffffffffffffffffffffffffffffffffff160361081d576040517f08c379a00000000000000000000000000000000000000000000000000000000081526004016108149061297c565b60405180910390fd5b80915050919050565b60008073ffffffffffffffffffffffffffffffffffffffff168273ffffffffffffffffffffffffffffffffffffffff1603610896576040517f08c379a000000000000000000000000000000000000000000000000000000000815260040161088d90612a0e565b60405180910390fd5b600360008373ffffffffffffffffffffffffffffffffffffffff1673ffffffffffffffffffffffffffffffffffffffff168152602001908152602001600020549050919050565b6060600180546108ec90612610565b80601f016020809104026020016040519081016040528092919081815260200182805461091890612610565b80156109655780601f1061093a57610100808354040283529160200191610965565b820191906000526020600020905b81548152906001019060200180831161094857829003601f168201915b5050505050905090565b61098161097a610f02565b838361148f565b5050565b606060006109b961099584611351565b6040516020016109a59190612a7a565b60405160208183030381529060405261141f565b9050600a80549050816109cc91906128d0565b9050600a81815481106109e2576109e1612901565b5b9060005260206000200180546109f790612610565b80601f0160208091040260200160405190810160405280929190818152602001828054610a2390612610565b8015610a705780601f10610a4557610100808354040283529160200191610a70565b820191906000526020600020905b815481529060010190602001808311610a5357829003601f168201915b5050505050915050919050565b610a8e610a88610f02565b83610fc3565b610acd576040517f08c379a0000000000000000000000000000000000000000000000000000000008152600401610ac4906127d7565b60405180910390fd5b610ad9848484846115fb565b50505050565b6060610aea82610eb7565b6000600660008481526020019081526020016000208054610b0a90612610565b80601f0160208091040260200160405190810160405280929190818152602001828054610b3690612610565b8015610b835780601f10610b5857610100808354040283529160200191610b83565b820191906000526020600020905b815481529060010190602001808311610b6657829003601f168201915b505050505090506000610b94611657565b90506000815103610ba9578192505050610bec565b600082511115610bde578082604051602001610bc6929190612a9c565b60405160208183030381529060405292505050610bec565b610be78461166e565b925050505b919050565b6000610bfd60076116d6565b90506000610c0a82610688565b90506000610c1783610985565b905060008282604051602001610c2e929190612a9c565b60405160208183030381529060405290506000600882604051602001610c55929190612ba4565b60405160208183030381529060405290506000610c9a83610c75846116e4565b604051602001610c86929190612d4f565b6040516020818303038152906040526116e4565b9050600081604051602001610caf9190612de0565b6040516020818303038152906040529050610cca338861187b565b610cd48782611899565b610cde6007611906565b7febb98688741ffa4c7589bf325de30cf7becb63de567842e1ccdb6cb949fdc82c3388604051610d0f929190612e02565b60405180910390a150505050505050565b6000600560008473ffffffffffffffffffffffffffffffffffffffff1673ffffffffffffffffffffffffffffffffffffffff16815260200190815260200160002060008373ffffffffffffffffffffffffffffffffffffffff1673ffffffffffffffffffffffffffffffffffffffff16815260200190815260200160002060009054906101000a900460ff16905092915050565b610e4a81604051602401610dc89190612186565b6040516020818303038152906040527f41304fac000000000000000000000000000000000000000000000000000000007bffffffffffffffffffffffffffffffffffffffffffffffffffffffff19166020820180517bffffffffffffffffffffffffffffffffffffffffffffffffffffffff838183161783525050505061191c565b50565b60007f01ffc9a7000000000000000000000000000000000000000000000000000000007bffffffffffffffffffffffffffffffffffffffffffffffffffffffff1916827bffffffffffffffffffffffffffffffffffffffffffffffffffffffff1916149050919050565b610ec081611945565b610eff576040517f08c379a0000000000000000000000000000000000000000000000000000000008152600401610ef69061297c565b60405180910390fd5b50565b600033905090565b816004600083815260200190815260200160002060006101000a81548173ffffffffffffffffffffffffffffffffffffffff021916908373ffffffffffffffffffffffffffffffffffffffff160217905550808273ffffffffffffffffffffffffffffffffffffffff16610f7d836107a0565b73ffffffffffffffffffffffffffffffffffffffff167f8c5be1e5ebec7d5bd14f71427d1e84f3dd0314c0f7b2291e5b200ac8c7c3b92560405160405180910390a45050565b600080610fcf836107a0565b90508073ffffffffffffffffffffffffffffffffffffffff168473ffffffffffffffffffffffffffffffffffffffff16148061101157506110108185610d20565b5b8061104f57508373ffffffffffffffffffffffffffffffffffffffff16611037846104cb565b73ffffffffffffffffffffffffffffffffffffffff16145b91505092915050565b8273ffffffffffffffffffffffffffffffffffffffff16611078826107a0565b73ffffffffffffffffffffffffffffffffffffffff16146110ce576040517f08c379a00000000000000000000000000000000000000000000000000000000081526004016110c590612e9d565b60405180910390fd5b600073ffffffffffffffffffffffffffffffffffffffff168273ffffffffffffffffffffffffffffffffffffffff160361113d576040517f08c379a000000000000000000000000000000000000000000000000000000000815260040161113490612f2f565b60405180910390fd5b61114a8383836001611986565b8273ffffffffffffffffffffffffffffffffffffffff1661116a826107a0565b73ffffffffffffffffffffffffffffffffffffffff16146111c0576040517f08c379a00000000000000000000000000000000000000000000000000000000081526004016111b790612e9d565b60405180910390fd5b6004600082815260200190815260200160002060006101000a81549073ffffffffffffffffffffffffffffffffffffffff02191690556001600360008573ffffffffffffffffffffffffffffffffffffffff1673ffffffffffffffffffffffffffffffffffffffff168152602001908152602001600020600082825403925050819055506001600360008473ffffffffffffffffffffffffffffffffffffffff1673ffffffffffffffffffffffffffffffffffffffff16815260200190815260200160002060008282540192505081905550816002600083815260200190815260200160002060006101000a81548173ffffffffffffffffffffffffffffffffffffffff021916908373ffffffffffffffffffffffffffffffffffffffff160217905550808273ffffffffffffffffffffffffffffffffffffffff168473ffffffffffffffffffffffffffffffffffffffff167fddf252ad1be2c89b69c2b068fc378daa952ba7f163c4a11628f55a4df523b3ef60405160405180910390a461134c8383836001611aac565b505050565b60606000600161136084611ab2565b01905060008167ffffffffffffffff81111561137f5761137e6123f3565b5b6040519080825280601f01601f1916602001820160405280156113b15781602001600182028036833780820191505090505b509050600082602001820190505b600115611414578080600190039150507f3031323334353637383961626364656600000000000000000000000000000000600a86061a8153600a8581611408576114076128a1565b5b049450600085036113bf575b819350505050919050565b6000816040516020016114329190612f4f565b6040516020818303038152906040528051906020012060001c9050919050565b60006002600083815260200190815260200160002060009054906101000a900473ffffffffffffffffffffffffffffffffffffffff169050919050565b8173ffffffffffffffffffffffffffffffffffffffff168373ffffffffffffffffffffffffffffffffffffffff16036114fd576040517f08c379a00000000000000000000000000000000000000000000000000000000081526004016114f490612fb2565b60405180910390fd5b80600560008573ffffffffffffffffffffffffffffffffffffffff1673ffffffffffffffffffffffffffffffffffffffff16815260200190815260200160002060008473ffffffffffffffffffffffffffffffffffffffff1673ffffffffffffffffffffffffffffffffffffffff16815260200190815260200160002060006101000a81548160ff0219169083151502179055508173ffffffffffffffffffffffffffffffffffffffff168373ffffffffffffffffffffffffffffffffffffffff167f17307eab39ab6107e8899845ad3d59bd9653f200f220920489ca2b5937696c31836040516115ee91906120db565b60405180910390a3505050565b611606848484611058565b61161284848484611c05565b611651576040517f08c379a000000000000000000000000000000000000000000000000000000000815260040161164890613044565b60405180910390fd5b50505050565b606060405180602001604052806000815250905090565b606061167982610eb7565b6000611683611657565b905060008151116116a357604051806020016040528060008152506116ce565b806116ad84611351565b6040516020016116be929190612a9c565b6040516020818303038152906040525b915050919050565b600081600001549050919050565b60606000825190506000810361170c5760405180602001604052806000815250915050611876565b6000600360028361171d9190613093565b61172791906130c7565b600461173391906130f8565b905060006020826117449190613093565b67ffffffffffffffff81111561175d5761175c6123f3565b5b6040519080825280601f01601f19166020018201604052801561178f5781602001600182028036833780820191505090505b5090506000604051806060016040528060408152602001613625604091399050600181016020830160005b868110156118335760038101905062ffffff818a015116603f8160121c168401518060081b905060ff603f83600c1c1686015116810190508060081b905060ff603f8360061c1686015116810190508060081b905060ff603f831686015116810190508060e01b905080845260048401935050506117ba565b50600386066001811461184d576002811461185d57611868565b613d3d60f01b6002830352611868565b603d60f81b60018303525b508484525050819450505050505b919050565b611895828260405180602001604052806000815250611d8c565b5050565b6118a282611945565b6118e1576040517f08c379a00000000000000000000000000000000000000000000000000000000081526004016118d8906131ac565b60405180910390fd5b806006600084815260200190815260200160002090816119019190613363565b505050565b6001816000016000828254019250508190555050565b60008151905060006a636f6e736f6c652e6c6f679050602083016000808483855afa5050505050565b60008073ffffffffffffffffffffffffffffffffffffffff1661196783611452565b73ffffffffffffffffffffffffffffffffffffffff1614159050919050565b6001811115611aa657600073ffffffffffffffffffffffffffffffffffffffff168473ffffffffffffffffffffffffffffffffffffffff1614611a1a5780600360008673ffffffffffffffffffffffffffffffffffffffff1673ffffffffffffffffffffffffffffffffffffffff1681526020019081526020016000206000828254611a129190613435565b925050819055505b600073ffffffffffffffffffffffffffffffffffffffff168373ffffffffffffffffffffffffffffffffffffffff1614611aa55780600360008573ffffffffffffffffffffffffffffffffffffffff1673ffffffffffffffffffffffffffffffffffffffff1681526020019081526020016000206000828254611a9d9190613093565b925050819055505b5b50505050565b50505050565b600080600090507a184f03e93ff9f4daa797ed6e38ed64bf6a1f0100000000000000008310611b10577a184f03e93ff9f4daa797ed6e38ed64bf6a1f0100000000000000008381611b0657611b056128a1565b5b0492506040810190505b6d04ee2d6d415b85acef81000000008310611b4d576d04ee2d6d415b85acef81000000008381611b4357611b426128a1565b5b0492506020810190505b662386f26fc100008310611b7c57662386f26fc100008381611b7257611b716128a1565b5b0492506010810190505b6305f5e1008310611ba5576305f5e1008381611b9b57611b9a6128a1565b5b0492506008810190505b6127108310611bca576127108381611bc057611bbf6128a1565b5b0492506004810190505b60648310611bed5760648381611be357611be26128a1565b5b0492506002810190505b600a8310611bfc576001810190505b80915050919050565b6000611c268473ffffffffffffffffffffffffffffffffffffffff16611de7565b15611d7f578373ffffffffffffffffffffffffffffffffffffffff1663150b7a02611c4f610f02565b8786866040518563ffffffff1660e01b8152600401611c7194939291906134be565b6020604051808303816000875af1925050508015611cad57506040513d601f19601f82011682018060405250810190611caa919061351f565b60015b611d2f573d8060008114611cdd576040519150601f19603f3d011682016040523d82523d6000602084013e611ce2565b606091505b506000815103611d27576040517f08c379a0000000000000000000000000000000000000000000000000000000008152600401611d1e90613044565b60405180910390fd5b805181602001fd5b63150b7a0260e01b7bffffffffffffffffffffffffffffffffffffffffffffffffffffffff1916817bffffffffffffffffffffffffffffffffffffffffffffffffffffffff191614915050611d84565b600190505b949350505050565b611d968383611e0a565b611da36000848484611c05565b611de2576040517f08c379a0000000000000000000000000000000000000000000000000000000008152600401611dd990613044565b60405180910390fd5b505050565b6000808273ffffffffffffffffffffffffffffffffffffffff163b119050919050565b600073ffffffffffffffffffffffffffffffffffffffff168273ffffffffffffffffffffffffffffffffffffffff1603611e79576040517f08c379a0000000000000000000000000000000000000000000000000000000008152600401611e7090613598565b60405180910390fd5b611e8281611945565b15611ec2576040517f08c379a0000000000000000000000000000000000000000000000000000000008152600401611eb990613604565b60405180910390fd5b611ed0600083836001611986565b611ed981611945565b15611f19576040517f08c379a0000000000000000000000000000000000000000000000000000000008152600401611f1090613604565b60405180910390fd5b6001600360008473ffffffffffffffffffffffffffffffffffffffff1673ffffffffffffffffffffffffffffffffffffffff16815260200190815260200160002060008282540192505081905550816002600083815260200190815260200160002060006101000a81548173ffffffffffffffffffffffffffffffffffffffff021916908373ffffffffffffffffffffffffffffffffffffffff160217905550808273ffffffffffffffffffffffffffffffffffffffff16600073ffffffffffffffffffffffffffffffffffffffff167fddf252ad1be2c89b69c2b068fc378daa952ba7f163c4a11628f55a4df523b3ef60405160405180910390a4612023600083836001611aac565b5050565b6000604051905090565b600080fd5b600080fd5b60007fffffffff0000000000000000000000000000000000000000000000000000000082169050919050565b6120708161203b565b811461207b57600080fd5b50565b60008135905061208d81612067565b92915050565b6000602082840312156120a9576120a8612031565b5b60006120b78482850161207e565b91505092915050565b60008115159050919050565b6120d5816120c0565b82525050565b60006020820190506120f060008301846120cc565b92915050565b600081519050919050565b600082825260208201905092915050565b60005b83811015612130578082015181840152602081019050612115565b60008484015250505050565b6000601f19601f8301169050919050565b6000612158826120f6565b6121628185612101565b9350612172818560208601612112565b61217b8161213c565b840191505092915050565b600060208201905081810360008301526121a0818461214d565b905092915050565b6000819050919050565b6121bb816121a8565b81146121c657600080fd5b50565b6000813590506121d8816121b2565b92915050565b6000602082840312156121f4576121f3612031565b5b6000612202848285016121c9565b91505092915050565b600073ffffffffffffffffffffffffffffffffffffffff82169050919050565b60006122368261220b565b9050919050565b6122468161222b565b82525050565b6000602082019050612261600083018461223d565b92915050565b6122708161222b565b811461227b57600080fd5b50565b60008135905061228d81612267565b92915050565b600080604083850312156122aa576122a9612031565b5b60006122b88582860161227e565b92505060206122c9858286016121c9565b9150509250929050565b6000806000606084860312156122ec576122eb612031565b5b60006122fa8682870161227e565b935050602061230b8682870161227e565b925050604061231c868287016121c9565b9150509250925092565b60006020828403121561233c5761233b612031565b5b600061234a8482850161227e565b91505092915050565b61235c816121a8565b82525050565b60006020820190506123776000830184612353565b92915050565b612386816120c0565b811461239157600080fd5b50565b6000813590506123a38161237d565b92915050565b600080604083850312156123c0576123bf612031565b5b60006123ce8582860161227e565b92505060206123df85828601612394565b9150509250929050565b600080fd5b600080fd5b7f4e487b7100000000000000000000000000000000000000000000000000000000600052604160045260246000fd5b61242b8261213c565b810181811067ffffffffffffffff8211171561244a576124496123f3565b5b80604052505050565b600061245d612027565b90506124698282612422565b919050565b600067ffffffffffffffff821115612489576124886123f3565b5b6124928261213c565b9050602081019050919050565b82818337600083830152505050565b60006124c16124bc8461246e565b612453565b9050828152602081018484840111156124dd576124dc6123ee565b5b6124e884828561249f565b509392505050565b600082601f830112612505576125046123e9565b5b81356125158482602086016124ae565b91505092915050565b6000806000806080858703121561253857612537612031565b5b60006125468782880161227e565b94505060206125578782880161227e565b9350506040612568878288016121c9565b925050606085013567ffffffffffffffff81111561258957612588612036565b5b612595878288016124f0565b91505092959194509250565b600080604083850312156125b8576125b7612031565b5b60006125c68582860161227e565b92505060206125d78582860161227e565b9150509250929050565b7f4e487b7100000000000000000000000000000000000000000000000000000000600052602260045260246000fd5b6000600282049050600182168061262857607f821691505b60208210810361263b5761263a6125e1565b5b50919050565b7f4552433732313a20617070726f76616c20746f2063757272656e74206f776e6560008201527f7200000000000000000000000000000000000000000000000000000000000000602082015250565b600061269d602183612101565b91506126a882612641565b604082019050919050565b600060208201905081810360008301526126cc81612690565b9050919050565b7f4552433732313a20617070726f76652063616c6c6572206973206e6f7420746f60008201527f6b656e206f776e6572206f7220617070726f76656420666f7220616c6c000000602082015250565b600061272f603d83612101565b915061273a826126d3565b604082019050919050565b6000602082019050818103600083015261275e81612722565b9050919050565b7f4552433732313a2063616c6c6572206973206e6f7420746f6b656e206f776e6560008201527f72206f7220617070726f76656400000000000000000000000000000000000000602082015250565b60006127c1602d83612101565b91506127cc82612765565b604082019050919050565b600060208201905081810360008301526127f0816127b4565b9050919050565b600081905092915050565b7f46495253545f574f524400000000000000000000000000000000000000000000600082015250565b6000612838600a836127f7565b915061284382612802565b600a82019050919050565b6000612859826120f6565b61286381856127f7565b9350612873818560208601612112565b80840191505092915050565b600061288a8261282b565b9150612896828461284e565b915081905092915050565b7f4e487b7100000000000000000000000000000000000000000000000000000000600052601260045260246000fd5b60006128db826121a8565b91506128e6836121a8565b9250826128f6576128f56128a1565b5b828206905092915050565b7f4e487b7100000000000000000000000000000000000000000000000000000000600052603260045260246000fd5b7f4552433732313a20696e76616c696420746f6b656e2049440000000000000000600082015250565b6000612966601883612101565b915061297182612930565b602082019050919050565b6000602082019050818103600083015261299581612959565b9050919050565b7f4552433732313a2061646472657373207a65726f206973206e6f74206120766160008201527f6c6964206f776e65720000000000000000000000000000000000000000000000602082015250565b60006129f8602983612101565b9150612a038261299c565b604082019050919050565b60006020820190508181036000830152612a27816129eb565b9050919050565b7f5345434f4e445f574f5244000000000000000000000000000000000000000000600082015250565b6000612a64600b836127f7565b9150612a6f82612a2e565b600b82019050919050565b6000612a8582612a57565b9150612a91828461284e565b915081905092915050565b6000612aa8828561284e565b9150612ab4828461284e565b91508190509392505050565b60008190508160005260206000209050919050565b60008154612ae281612610565b612aec81866127f7565b94506001821660008114612b075760018114612b1c57612b4f565b60ff1983168652811515820286019350612b4f565b612b2585612ac0565b60005b83811015612b4757815481890152600182019150602081019050612b28565b838801955050505b50505092915050565b7f3c2f746578743e3c2f7376673e00000000000000000000000000000000000000600082015250565b6000612b8e600d836127f7565b9150612b9982612b58565b600d82019050919050565b6000612bb08285612ad5565b9150612bbc828461284e565b9150612bc782612b81565b91508190509392505050565b7f7b226e616d65223a202200000000000000000000000000000000000000000000600082015250565b6000612c09600a836127f7565b9150612c1482612bd3565b600a82019050919050565b7f222c20226465736372697074696f6e223a202247656e65726174652072616e6460008201527f6f6d20776f72647320696e206e667420746861742063616e206d61746368206160208201527f20706f70756c61722073686f77206f72206576656e206d79206e616d65212e2260408201527f2c2022696d616765223a2022646174613a696d6167652f7376672b786d6c3b6260608201527f61736536342c0000000000000000000000000000000000000000000000000000608082015250565b6000612ced6086836127f7565b9150612cf882612c1f565b608682019050919050565b7f227d000000000000000000000000000000000000000000000000000000000000600082015250565b6000612d396002836127f7565b9150612d4482612d03565b600282019050919050565b6000612d5a82612bfc565b9150612d66828561284e565b9150612d7182612ce0565b9150612d7d828461284e565b9150612d8882612d2c565b91508190509392505050565b7f646174613a6170706c69636174696f6e2f6a736f6e3b6261736536342c000000600082015250565b6000612dca601d836127f7565b9150612dd582612d94565b601d82019050919050565b6000612deb82612dbd565b9150612df7828461284e565b915081905092915050565b6000604082019050612e17600083018561223d565b612e246020830184612353565b9392505050565b7f4552433732313a207472616e736665722066726f6d20696e636f72726563742060008201527f6f776e6572000000000000000000000000000000000000000000000000000000602082015250565b6000612e87602583612101565b9150612e9282612e2b565b604082019050919050565b60006020820190508181036000830152612eb681612e7a565b9050919050565b7f4552433732313a207472616e7366657220746f20746865207a65726f2061646460008201527f7265737300000000000000000000000000000000000000000000000000000000602082015250565b6000612f19602483612101565b9150612f2482612ebd565b604082019050919050565b60006020820190508181036000830152612f4881612f0c565b9050919050565b6000612f5b828461284e565b915081905092915050565b7f4552433732313a20617070726f766520746f2063616c6c657200000000000000600082015250565b6000612f9c601983612101565b9150612fa782612f66565b602082019050919050565b60006020820190508181036000830152612fcb81612f8f565b9050919050565b7f4552433732313a207472616e7366657220746f206e6f6e20455243373231526560008201527f63656976657220696d706c656d656e7465720000000000000000000000000000602082015250565b600061302e603283612101565b915061303982612fd2565b604082019050919050565b6000602082019050818103600083015261305d81613021565b9050919050565b7f4e487b7100000000000000000000000000000000000000000000000000000000600052601160045260246000fd5b600061309e826121a8565b91506130a9836121a8565b92508282019050808211156130c1576130c0613064565b5b92915050565b60006130d2826121a8565b91506130dd836121a8565b9250826130ed576130ec6128a1565b5b828204905092915050565b6000613103826121a8565b915061310e836121a8565b925082820261311c816121a8565b9150828204841483151761313357613132613064565b5b5092915050565b7f45524337323155524953746f726167653a2055524920736574206f66206e6f6e60008201527f6578697374656e7420746f6b656e000000000000000000000000000000000000602082015250565b6000613196602e83612101565b91506131a18261313a565b604082019050919050565b600060208201905081810360008301526131c581613189565b9050919050565b60006020601f8301049050919050565b600082821b905092915050565b6000600883026132197fffffffffffffffffffffffffffffffffffffffffffffffffffffffffffffffff826131dc565b61322386836131dc565b95508019841693508086168417925050509392505050565b6000819050919050565b600061326061325b613256846121a8565b61323b565b6121a8565b9050919050565b6000819050919050565b61327a83613245565b61328e61328682613267565b8484546131e9565b825550505050565b600090565b6132a3613296565b6132ae818484613271565b505050565b5b818110156132d2576132c760008261329b565b6001810190506132b4565b5050565b601f821115613317576132e881612ac0565b6132f1846131cc565b81016020851015613300578190505b61331461330c856131cc565b8301826132b3565b50505b505050565b600082821c905092915050565b600061333a6000198460080261331c565b1980831691505092915050565b60006133538383613329565b9150826002028217905092915050565b61336c826120f6565b67ffffffffffffffff811115613385576133846123f3565b5b61338f8254612610565b61339a8282856132d6565b600060209050601f8311600181146133cd57600084156133bb578287015190505b6133c58582613347565b86555061342d565b601f1984166133db86612ac0565b60005b82811015613403578489015182556001820191506020850194506020810190506133de565b86831015613420578489015161341c601f891682613329565b8355505b6001600288020188555050505b505050505050565b6000613440826121a8565b915061344b836121a8565b925082820390508181111561346357613462613064565b5b92915050565b600081519050919050565b600082825260208201905092915050565b600061349082613469565b61349a8185613474565b93506134aa818560208601612112565b6134b38161213c565b840191505092915050565b60006080820190506134d3600083018761223d565b6134e0602083018661223d565b6134ed6040830185612353565b81810360608301526134ff8184613485565b905095945050505050565b60008151905061351981612067565b92915050565b60006020828403121561353557613534612031565b5b60006135438482850161350a565b91505092915050565b7f4552433732313a206d696e7420746f20746865207a65726f2061646472657373600082015250565b6000613582602083612101565b915061358d8261354c565b602082019050919050565b600060208201905081810360008301526135b181613575565b9050919050565b7f4552433732313a20746f6b656e20616c7265616479206d696e74656400000000600082015250565b60006135ee601c83612101565b91506135f9826135b8565b602082019050919050565b6000602082019050818103600083015261361d816135e1565b905091905056fe4142434445464748494a4b4c4d4e4f505152535455565758595a6162636465666768696a6b6c6d6e6f707172737475767778797a303132333435363738392b2fa26469706673582212207ee019a636c46a3bb8904e2abf10d436a0d9868b6c3eff7995041b3feeb155ed64736f6c634300081100333c73766720786d6c6e733d27687474703a2f2f7777772e77332e6f72672f323030302f73766727207072657365727665417370656374526174696f3d27784d696e594d696e206d656574272076696577426f783d273020302033353020333530273e3c7374796c653e2e62617365207b2066696c6c3a2077686974653b20666f6e742d66616d696c793a2073657269663b20666f6e742d73697a653a20323470783b207d3c2f7374796c653e3c726563742077696474683d273130302527206865696768743d2731303025272066696c6c3d27626c61636b27202f3e3c7465787420783d273530252720793d273530252720636c6173733d27626173652720646f6d696e616e742d626173656c696e653d276d6964646c652720746578742d616e63686f723d276d6964646c65273e",
  "linkReferences": {},
  "deployedLinkReferences": {}
}